:0401D3007F057E0026
:1001D700E4FDFCE4FBFAD3EB9FEA9E50070BBB0060
:0F01E700010A80F20DBD00010CBC04E7BDFCE471
:0101F60022E6
:10009100C280C281C282C2832084081201D31200AD
:1000A100D380142085081201D31201138009208600
:1000B1000F1201D31201538E088F0912000380D051
:1000C1002087CD1201D31201938E088F09120003EC
:0200D10080BEEF
:1000D300C280D281D282D2832084057E007F012216
:1000E300D280C281D282D2832084057E007F052202
:1000F300D280D281C282D2832084057E007F0922EE
:10010300D280D281D282C2832084047E007F0D22DA
:10011300C280D281D282D2832085057E007F0222D3
:10012300D280C281D282D2832085057E007F0622BF
:10013300D280D281C282D2832085057E007F0A22AB
:10014300D280D281D282C2832085047E007F0E2298
:10015300C280D281D282D2832086057E007F032291
:10016300D280C281D282D2832086057E007F07227D
:10017300D280D281C282D2832086057E007F0B2269
:10018300D280D281D282C2832086047E007F0F2256
:10019300C280D281D282D2832087057E007F04224F
:1001A300D280C281D282D2832087057E007F08223B
:1001B300D280D281C282D2832087057E007F0C2227
:1001C300D280D281D282C2832087047E007F102214
:10000300EE6003020090EF14B4100040030200906E
:1000130090002175F003A4C58325F0C58373020006
:100023005102005502005902005D020061020065A1
:1000330002006902006D020071020075020079027C
:10004300007D02008102008502008902008DE4F533
:10005300902275900122759002227590032275906B
:1000630004227590052275900622759007227590DB
:1000730008227590092275900A2275900B227590BB
:0E0083000C2275900D2275900E2275900F22A2
:030000000201F703
:0C01F700787FE4F6D8FD758109020091C4
:00000001FF
