:1002840056414C5545203A00202020202020202093
:0902940020202020202020200061
:10024300C2907F381202D27F011202D27F0C1202B7
:10025300D27F061202D27F801202D21201F6C2911D
:010263002278
:10029D001202C07F4F1202CA7F4B1202CA7FF47E38
:0702AD00011201FC0202C076
:0802CA00D2901201F4C291224E
:0802D200C2901201F4C2912256
:0801F4008FA0D2917F067E006E
:1001FC007D017C00D3ED9FEC9E50167B017A000BA9
:10020C00BB00010AEB64334A70F50DBD00010C8094
:01021C00E3FE
:01021D0022BE
:10021E008B1A8A1B891CAB1AAA1BA91C1200CE6052
:10022E0013051CE51C7002051B14F91200CEFF12FB
:05023E0002CA80E2226B
:0A02C0007F011202D27F800202D2F9
:10026400E4FDFCD3ED9FEC9E5015E4FBFA0BBB00C0
:0F027400010AEB64C94A70F50DBD00010C80E46E
:010283002258
:040172008E1A8F1B37
:10017600E4FBF51CF51DF512F5137A0A78087420D0
:10018600F608DAFCE4FAFBE51B451A6037AE1AAF4F
:100196001B7C007D0A12013C74082BF8A605740826
:1001A6002BF8743026F6AE1AAF1B7C007D0A1201BE
:1001B6003C8E1A8F1B0BBB00010A0513E51370C793
:1001C600051280C3E51324FFF51DE51234FFF51C67
:1001D600C3E51C6480948040147408251DF8E6FF6E
:0D01E6001202CAE51D151D70E7151C80E30F
:0101F30022E9
:10000300E4F514F515F518F51912024312029D12C1
:1000130002C07BFF7A02798412021EE4F518F519F7
:10002300C297C2937F017E00120264D293D29720BB
:1000330094FDC297C2927F017E00120264D292AFF6
:10004300B0E5152FF515EE3514F514D2977F05128B
:1000530002640519E51970020518C39432E5189472
:100063000040BDAE14AF157C007D321200E78E1444
:100073008F15D3E5159463E5149400400AE51794AE
:1000830064E51694004015C3E5159464E5149400E3
:100093005018E5179463E5169400400E7FC01202D2
:1000A300D27BFF7A02798C12021E7FC01202D285A4
:1000B3001416851517AF15AE141201727F327E0028
:0B00C300120264E4F514F51502001EA3
:030000000202B445
:0C02B400787FE4F6D8FD75811D02000380
:1000CE00BB010689828A83E0225002E722BBFE0230
:0900DE00E32289828A83E4932263
:1000E700BC000BBE0029EF8DF084FFADF022E4CCFD
:1000F700F875F008EF2FFFEE33FEEC33FCEE9DECC6
:10010700984005FCEE9DFE0FD5F0E9E4CEFD22ED0B
:10011700F8F5F0EE8420D21CFEADF075F008EF2F55
:10012700FFED33FD4007985006D5F0F222C398FD46
:050137000FD5F0EA22E3
:10013C00C2D5EC30E709B2D5E4C39DFDE49CFCEEDE
:10014C0030E715B2D5E4C39FFFE49EFE1200E7C36F
:10015C00E49DFDE49CFC80031200E730D507C3E46A
:06016C009FFFE49EFE224D
:00000001FF
