:0300000002029069
:0C029000787FE4F6D8FD75811B0200B2F7
:1002600056414C5545203A002020202020202020B7
:0902700020202020202020200085
:10021D00C2907F381202B27F011202B27F0C12021D
:10022D00B27F061202B27F801202B21201D0C291C9
:03023D0002027941
:100279001202A87F4F1200037F4B1200037FF47E06
:07028900011201D60202A8D8
:08000300D2901201CEC291223D
:0802B200C2901201CEC291229C
:0801CE008F80D2917F067E00B4
:1001D6007D017C00D3ED9FEC9E50167B017A000BCF
:1001E600BB00010AEB64334A70F50DBD00010C80BB
:0101F600E325
:0101F70022E5
:1001F8008B188A19891AAB18AA19A91A12000E6045
:1002080013051AE51A7002051914F912000EFF12E7
:05021800000380E2225A
:0A02A8007F011202B27F800202B251
:03000B000202BA34
:0302BA00B29532C8
:10024000E4FDFCC3ED9FEC9E5015E4FBFA0BBB00F4
:0F025000010ABA04F8BBFBF50DBD00010C80E4F8
:01025F00227C
:04014C008E188F1961
:10015000E4FBF51AF51BF512F5137A0A78087420FA
:10016000F608DAFCE4FAFBE51945186037AE18AF7B
:10017000197C007D0A12002774082BF8A605740864
:100180002BF8743026F6AE18AF197C007D0A1200E9
:10019000278E188F190BBB00010A0513E51370C7D2
:1001A000051280C3E51324FFF51BE51234FFF51A91
:1001B000C3E51A6480948040147408251BF8E6FF98
:0D01C000120003E51B151B70E7151A80E304
:0101CD00220F
:0C029C00758922758CFD75A882D28C2219
:1000B20012021DD293C296C294C29212029C1202E2
:1000C200A87BFF7A0279601201F87FC01202B2C2E5
:1000D200B5C2B6C2B77F017E00120240D2961202AA
:1000E20040D292120240C296120240C2922093FD66
:1000F2003093FDD294AFA07514008F15D3E51594FB
:1001020063E5149400400AE5179464E516940040F0
:1001120015C3E5159464E51494005018E51794632B
:10012200E5169400400E7FC01202B27BFF7A02797C
:10013200681201F87FC01202B2AF15AE1412014C60
:0A014200851416851517C2948085F8
:10000E00BB010689828A83E0225002E722BBFE02F0
:09001E00E32289828A83E4932223
:10002700C2D5EC30E709B2D5E4C39DFDE49CFCEEF4
:1000370030E715B2D5E4C39FFFE49EFE12005DC30F
:10004700E49DFDE49CFC800312005D30D507C3E40A
:060057009FFFE49EFE2263
:10005D00BC000BBE0029EF8DF084FFADF022E4CC87
:10006D00F875F008EF2FFFEE33FEEC33FCEE9DEC50
:10007D00984005FCEE9DFE0FD5F0E9E4CEFD22ED96
:10008D00F8F5F0EE8420D21CFEADF075F008EF2FE0
:10009D00FFED33FD4007985006D5F0F222C398FDD1
:0500AD000FD5F0EA226E
:00000001FF
