:050110000308434D430C
:1000DF00C2907F381201087F011201087F0C1201B4
:1000EF00087F061201087F80120108120091C29248
:0100FF0022DE
:08010000D29012008FC292227E
:08010800C29012008FC2922286
:08008F008F80D2927F067E00F3
:100097007D017C00D3ED9FEC9E50167B017A000B0F
:1000A700BB00010AEB64334A70F50DBD00010C80FB
:0100B700E365
:0100B8002225
:1000B900C2911200DFE4F50BF50C7408250CF8E683
:1000C900FF120100050CE50C7002050BC39403E552
:0500D9000B940040E55E
:0100DE0022FF
:03000000020003F8
:0C000300787FE4F6D8FD75810C02004AFD
:10000F000200B9E493A3F8E493A34003F68001F24E
:10001F0008DFF48029E493A3F85407240CC8C333F2
:10002F00C4540F4420C8834004F456800146F6DFC1
:10003F00E4800B0102040810204080900110E47E40
:10004F00019360BCA3FF543F30E509541FFEE493B6
:10005F00A360010ECF54C025E060A840B8E493A37D
:10006F00FAE493A3F8E493A3C8C582C8CAC583CAA8
:10007F00F0A3C8C582C8CAC583CADFE9DEE780BE60
:0101150000E9
:00000001FF
